{
  "_format": "hh-sol-artifact-1",
  "contractName": "MultiSig",
  "sourceName": "contracts/MultiSig.sol",
  "abi": [
    {
      "inputs": [
        {
          "internalType": "address[]",
          "name": "_signers",
          "type": "address[]"
        },
        {
          "internalType": "uint256",
          "name": "_threshold",
          "type": "uint256"
        }
      ],
      "stateMutability": "nonpayable",
      "type": "constructor"
    },
    {
      "anonymous": false,
      "inputs": [
        {
          "indexed": true,
          "internalType": "uint256",
          "name": "proposalId",
          "type": "uint256"
        },
        {
          "indexed": true,
          "internalType": "address",
          "name": "signer",
          "type": "address"
        },
        {
          "indexed": false,
          "internalType": "uint256",
          "name": "approvalCount",
          "type": "uint256"
        }
      ],
      "name": "ProposalApproved",
      "type": "event"
    },
    {
      "anonymous": false,
      "inputs": [
        {
          "indexed": true,
          "internalType": "uint256",
          "name": "proposalId",
          "type": "uint256"
        },
        {
          "indexed": true,
          "internalType": "address",
          "name": "proposer",
          "type": "address"
        }
      ],
      "name": "ProposalCancelled",
      "type": "event"
    },
    {
      "anonymous": false,
      "inputs": [
        {
          "indexed": true,
          "internalType": "uint256",
          "name": "proposalId",
          "type": "uint256"
        },
        {
          "indexed": true,
          "internalType": "address",
          "name": "proposer",
          "type": "address"
        },
        {
          "indexed": false,
          "internalType": "address",
          "name": "to",
          "type": "address"
        },
        {
          "indexed": false,
          "internalType": "uint256",
          "name": "value",
          "type": "uint256"
        },
        {
          "indexed": false,
          "internalType": "bytes",
          "name": "data",
          "type": "bytes"
        }
      ],
      "name": "ProposalCreated",
      "type": "event"
    },
    {
      "anonymous": false,
      "inputs": [
        {
          "indexed": true,
          "internalType": "uint256",
          "name": "proposalId",
          "type": "uint256"
        },
        {
          "indexed": true,
          "internalType": "address",
          "name": "executor",
          "type": "address"
        }
      ],
      "name": "ProposalExecuted",
      "type": "event"
    },
    {
      "stateMutability": "payable",
      "type": "fallback"
    },
    {
      "inputs": [
        {
          "internalType": "uint256",
          "name": "proposalId",
          "type": "uint256"
        }
      ],
      "name": "approve",
      "outputs": [],
      "stateMutability": "nonpayable",
      "type": "function"
    },
    {
      "inputs": [
        {
          "internalType": "uint256",
          "name": "proposalId",
          "type": "uint256"
        }
      ],
      "name": "cancel",
      "outputs": [],
      "stateMutability": "nonpayable",
      "type": "function"
    },
    {
      "inputs": [
        {
          "internalType": "uint256",
          "name": "proposalId",
          "type": "uint256"
        }
      ],
      "name": "execute",
      "outputs": [],
      "stateMutability": "nonpayable",
      "type": "function"
    },
    {
      "inputs": [],
      "name": "getAllProposals",
      "outputs": [
        {
          "components": [
            {
              "internalType": "uint256",
              "name": "id",
              "type": "uint256"
            },
            {
              "internalType": "address",
              "name": "to",
              "type": "address"
            },
            {
              "internalType": "uint256",
              "name": "value",
              "type": "uint256"
            },
            {
              "internalType": "bytes",
              "name": "data",
              "type": "bytes"
            },
            {
              "internalType": "address",
              "name": "proposer",
              "type": "address"
            },
            {
              "internalType": "uint256",
              "name": "approvalCount",
              "type": "uint256"
            },
            {
              "internalType": "bool",
              "name": "executed",
              "type": "bool"
            },
            {
              "internalType": "bool",
              "name": "cancelled",
              "type": "bool"
            }
          ],
          "internalType": "struct MultiSig.Proposal[]",
          "name": "",
          "type": "tuple[]"
        }
      ],
      "stateMutability": "view",
      "type": "function"
    },
    {
      "inputs": [
        {
          "internalType": "uint256",
          "name": "proposalId",
          "type": "uint256"
        }
      ],
      "name": "getProposal",
      "outputs": [
        {
          "components": [
            {
              "internalType": "uint256",
              "name": "id",
              "type": "uint256"
            },
            {
              "internalType": "address",
              "name": "to",
              "type": "address"
            },
            {
              "internalType": "uint256",
              "name": "value",
              "type": "uint256"
            },
            {
              "internalType": "bytes",
              "name": "data",
              "type": "bytes"
            },
            {
              "internalType": "address",
              "name": "proposer",
              "type": "address"
            },
            {
              "internalType": "uint256",
              "name": "approvalCount",
              "type": "uint256"
            },
            {
              "internalType": "bool",
              "name": "executed",
              "type": "bool"
            },
            {
              "internalType": "bool",
              "name": "cancelled",
              "type": "bool"
            }
          ],
          "internalType": "struct MultiSig.Proposal",
          "name": "",
          "type": "tuple"
        }
      ],
      "stateMutability": "view",
      "type": "function"
    },
    {
      "inputs": [],
      "name": "getSigners",
      "outputs": [
        {
          "internalType": "address[]",
          "name": "",
          "type": "address[]"
        }
      ],
      "stateMutability": "view",
      "type": "function"
    },
    {
      "inputs": [
        {
          "internalType": "uint256",
          "name": "",
          "type": "uint256"
        },
        {
          "internalType": "address",
          "name": "",
          "type": "address"
        }
      ],
      "name": "hasApproved",
      "outputs": [
        {
          "internalType": "bool",
          "name": "",
          "type": "bool"
        }
      ],
      "stateMutability": "view",
      "type": "function"
    },
    {
      "inputs": [
        {
          "internalType": "address",
          "name": "",
          "type": "address"
        }
      ],
      "name": "isSigner",
      "outputs": [
        {
          "internalType": "bool",
          "name": "",
          "type": "bool"
        }
      ],
      "stateMutability": "view",
      "type": "function"
    },
    {
      "inputs": [],
      "name": "proposalCount",
      "outputs": [
        {
          "internalType": "uint256",
          "name": "",
          "type": "uint256"
        }
      ],
      "stateMutability": "view",
      "type": "function"
    },
    {
      "inputs": [
        {
          "internalType": "uint256",
          "name": "",
          "type": "uint256"
        }
      ],
      "name": "proposals",
      "outputs": [
        {
          "internalType": "uint256",
          "name": "id",
          "type": "uint256"
        },
        {
          "internalType": "address",
          "name": "to",
          "type": "address"
        },
        {
          "internalType": "uint256",
          "name": "value",
          "type": "uint256"
        },
        {
          "internalType": "bytes",
          "name": "data",
          "type": "bytes"
        },
        {
          "internalType": "address",
          "name": "proposer",
          "type": "address"
        },
        {
          "internalType": "uint256",
          "name": "approvalCount",
          "type": "uint256"
        },
        {
          "internalType": "bool",
          "name": "executed",
          "type": "bool"
        },
        {
          "internalType": "bool",
          "name": "cancelled",
          "type": "bool"
        }
      ],
      "stateMutability": "view",
      "type": "function"
    },
    {
      "inputs": [
        {
          "internalType": "address",
          "name": "to",
          "type": "address"
        },
        {
          "internalType": "uint256",
          "name": "value",
          "type": "uint256"
        },
        {
          "internalType": "bytes",
          "name": "data",
          "type": "bytes"
        }
      ],
      "name": "propose",
      "outputs": [
        {
          "internalType": "uint256",
          "name": "proposalId",
          "type": "uint256"
        }
      ],
      "stateMutability": "nonpayable",
      "type": "function"
    },
    {
      "inputs": [
        {
          "internalType": "uint256",
          "name": "",
          "type": "uint256"
        }
      ],
      "name": "signers",
      "outputs": [
        {
          "internalType": "address",
          "name": "",
          "type": "address"
        }
      ],
      "stateMutability": "view",
      "type": "function"
    },
    {
      "inputs": [],
      "name": "threshold",
      "outputs": [
        {
          "internalType": "uint256",
          "name": "",
          "type": "uint256"
        }
      ],
      "stateMutability": "view",
      "type": "function"
    },
    {
      "stateMutability": "payable",
      "type": "receive"
    }
  ],
  "bytecode": "0x60806040523480156200001157600080fd5b50604051620018dc380380620018dc8339810160408190526200003491620002a5565b60008251116200009c5760405162461bcd60e51b815260206004820152602860248201527f4d756c74695369673a207365206e6563657369746120616c206d656e6f732075604482015267371039b4b3b732b960c11b60648201526084015b60405180910390fd5b600081118015620000ae575081518111155b620000fc5760405162461bcd60e51b815260206004820152601c60248201527f4d756c74695369673a207468726573686f6c6420696e76616c69646f00000000604482015260640162000093565b60005b82518110156200027d5760008382815181106200012c57634e487b7160e01b600052603260045260246000fd5b6020026020010151905060006001600160a01b0316816001600160a01b031614156200019b5760405162461bcd60e51b815260206004820152601960248201527f4d756c74695369673a207369676e657220696e76616c69646f00000000000000604482015260640162000093565b6001600160a01b03811660009081526003602052604090205460ff1615620002065760405162461bcd60e51b815260206004820152601a60248201527f4d756c74695369673a207369676e6572206475706c696361646f000000000000604482015260640162000093565b6001600160a01b03166000818152600360205260408120805460ff19166001908117909155815490810182559080527f290decd9548b62a8d60345a988386fc84ba6bc95484008f6362f93160ef3e5630180546001600160a01b031916909117905580620002748162000381565b915050620000ff565b5060015550620003bf565b80516001600160a01b0381168114620002a057600080fd5b919050565b60008060408385031215620002b8578182fd5b82516001600160401b0380821115620002cf578384fd5b818501915085601f830112620002e3578384fd5b8151602082821115620002fa57620002fa620003a9565b8160051b604051601f19603f83011681018181108682111715620003225762000322620003a9565b604052838152828101945085830182870184018b101562000341578889fd5b8896505b848710156200036e57620003598162000288565b86526001969096019594830194830162000345565b5097909101519698969750505050505050565b6000600019821415620003a257634e487b7160e01b81526011600452602481fd5b5060010190565b634e487b7160e01b600052604160045260246000fd5b61150d80620003cf6000396000f3fe6080604052600436106100bd5760003560e01c806393ba3f1511610079578063c7f758a811610056578063c7f758a81461025c578063cceb68f514610289578063da35c664146102ab578063fe0d94c1146102c157005b806393ba3f15146101fa57806394cf795e1461021a578063b759f9541461023c57005b8063013cf08b146100c65780632079fb9a146101035780632358d5a81461013b57806340e58ee51461018657806342cde4e8146101a65780637df73e27146101ca57005b366100c457005b005b3480156100d257600080fd5b506100e66100e13660046110a6565b6102e1565b6040516100fa98979695949392919061141f565b60405180910390f35b34801561010f57600080fd5b5061012361011e3660046110a6565b6103c8565b6040516001600160a01b0390911681526020016100fa565b34801561014757600080fd5b506101766101563660046110be565b600560209081526000928352604080842090915290825290205460ff1681565b60405190151581526020016100fa565b34801561019257600080fd5b506100c46101a13660046110a6565b6103f2565b3480156101b257600080fd5b506101bc60015481565b6040519081526020016100fa565b3480156101d657600080fd5b506101766101e5366004611003565b60036020526000908152604090205460ff1681565b34801561020657600080fd5b506101bc610215366004611024565b61054f565b34801561022657600080fd5b5061022f610771565b6040516100fa9190611293565b34801561024857600080fd5b506100c46102573660046110a6565b6107d3565b34801561026857600080fd5b5061027c6102773660046110a6565b610999565b6040516100fa919061140c565b34801561029557600080fd5b5061029e610b17565b6040516100fa91906112e0565b3480156102b757600080fd5b506101bc60025481565b3480156102cd57600080fd5b506100c46102dc3660046110a6565b610d1f565b600460205260009081526040902080546001820154600283015460038401805493946001600160a01b039093169391929161031b9061147b565b80601f01602080910402602001604051908101604052809291908181526020018280546103479061147b565b80156103945780601f1061036957610100808354040283529160200191610394565b820191906000526020600020905b81548152906001019060200180831161037757829003601f168201915b505050506004830154600584015460069094015492936001600160a01b039091169290915060ff8082169161010090041688565b600081815481106103d857600080fd5b6000918252602090912001546001600160a01b0316905081565b80600254811061041d5760405162461bcd60e51b8152600401610414906113a8565b60405180910390fd5b600082815260046020526040902060060154829060ff16156104515760405162461bcd60e51b815260040161041490611341565b6000838152600460205260409020600601548390610100900460ff161561048a5760405162461bcd60e51b8152600401610414906113df565b6000848152600460208190526040909120908101546001600160a01b0316331461050a5760405162461bcd60e51b815260206004820152602b60248201527f4d756c74695369673a20736f6c6f20656c2070726f706f6e656e74652070756560448201526a32329031b0b731b2b630b960a91b6064820152608401610414565b60068101805461ff001916610100179055604051339086907f74c34a008ce735d9fcf0bd03a9b238d212ad4c441c020661f4ffbb6442645b8590600090a35050505050565b3360009081526003602052604081205460ff1661057e5760405162461bcd60e51b815260040161041490611371565b6001600160a01b0385166105d45760405162461bcd60e51b815260206004820152601a60248201527f4d756c74695369673a2064657374696e6f20696e76616c69646f0000000000006044820152606401610414565b506002805490819060006105e7836114b0565b9190505550604051806101000160405280828152602001866001600160a01b0316815260200185815260200184848080601f0160208091040260200160405190810160405280939291908181526020018383808284376000920182905250938552505033602080850191909152604080850184905260608086018590526080909501849052868452600482529283902085518155858201516001820180546001600160a01b0319166001600160a01b0390921691909117905592850151600284015592840151805192936106c393600386019350910190610f4e565b5060808201516004820180546001600160a01b039092166001600160a01b031990921691909117905560a0820151600582015560c08201516006909101805460e09093015115156101000261ff00199215159290921661ffff1990931692909217179055604051339082907f7a3baf3086c0db63c3e2de0e8d6a51c2fdbbb9c69219e08eecf1781e109f40909061076190899089908990899061124b565b60405180910390a3949350505050565b606060008054806020026020016040519081016040528092919081815260200182805480156107c957602002820191906000526020600020905b81546001600160a01b031681526001909101906020018083116107ab575b5050505050905090565b3360009081526003602052604090205460ff166108025760405162461bcd60e51b815260040161041490611371565b8060025481106108245760405162461bcd60e51b8152600401610414906113a8565b600082815260046020526040902060060154829060ff16156108585760405162461bcd60e51b815260040161041490611341565b6000838152600460205260409020600601548390610100900460ff16156108915760405162461bcd60e51b8152600401610414906113df565b600084815260056020908152604080832033845290915290205460ff16156109095760405162461bcd60e51b815260206004820152602560248201527f4d756c74695369673a207961206170726f626173746520657374612070726f70604482015264756573746160d81b6064820152608401610414565b60008481526005602081815260408084203385528252808420805460ff191660011790558784526004909152822001805491610944836114b0565b9091555050600084815260046020908152604091829020600501549151918252339186917f2f0f51d2f12c71357e60d575d47e93e081dbaf32072245ab1e01540f0aadbf1a910160405180910390a350505050565b60408051610100810182526000808252602082018190529181018290526060808201526080810182905260a0810182905260c0810182905260e081019190915260025482106109fa5760405162461bcd60e51b8152600401610414906113a8565b6000828152600460209081526040918290208251610100810184528154815260018201546001600160a01b031692810192909252600281015492820192909252600382018054919291606084019190610a529061147b565b80601f0160208091040260200160405190810160405280929190818152602001828054610a7e9061147b565b8015610acb5780601f10610aa057610100808354040283529160200191610acb565b820191906000526020600020905b815481529060010190602001808311610aae57829003601f168201915b505050918352505060048201546001600160a01b031660208201526005820154604082015260069091015460ff8082161515606084015261010090910416151560809091015292915050565b6060600060025467ffffffffffffffff811115610b4457634e487b7160e01b600052604160045260246000fd5b604051908082528060200260200182016040528015610bb257816020015b6040805161010081018252600080825260208083018290529282018190526060808301526080820181905260a0820181905260c0820181905260e08201528252600019909201910181610b625790505b50905060005b600254811015610d19576000818152600460209081526040918290208251610100810184528154815260018201546001600160a01b031692810192909252600281015492820192909252600382018054919291606084019190610c1a9061147b565b80601f0160208091040260200160405190810160405280929190818152602001828054610c469061147b565b8015610c935780601f10610c6857610100808354040283529160200191610c93565b820191906000526020600020905b815481529060010190602001808311610c7657829003601f168201915b505050918352505060048201546001600160a01b031660208201526005820154604082015260069091015460ff808216151560608401526101009091041615156080909101528251839083908110610cfb57634e487b7160e01b600052603260045260246000fd5b60200260200101819052508080610d11906114b0565b915050610bb8565b50919050565b3360009081526003602052604090205460ff16610d4e5760405162461bcd60e51b815260040161041490611371565b806002548110610d705760405162461bcd60e51b8152600401610414906113a8565b600082815260046020526040902060060154829060ff1615610da45760405162461bcd60e51b815260040161041490611341565b6000838152600460205260409020600601548390610100900460ff1615610ddd5760405162461bcd60e51b8152600401610414906113df565b600084815260046020526040902060015460058201541015610e4d5760405162461bcd60e51b8152602060048201526024808201527f4d756c74695369673a206170726f626163696f6e657320696e737566696369656044820152636e74657360e01b6064820152608401610414565b60068101805460ff1916600190811790915581015460028201546040516000926001600160a01b03169190610e869060038601906111b0565b60006040518083038185875af1925050503d8060008114610ec3576040519150601f19603f3d011682016040523d82523d6000602084013e610ec8565b606091505b5050905080610f195760405162461bcd60e51b815260206004820152601d60248201527f4d756c74695369673a207472616e73616363696f6e2066616c6c6964610000006044820152606401610414565b604051339087907f9c85b616f29fca57a17eafe71cf9ff82ffef41766e2cf01ea7f8f7878dd3ec2490600090a3505050505050565b828054610f5a9061147b565b90600052602060002090601f016020900481019282610f7c5760008555610fc2565b82601f10610f9557805160ff1916838001178555610fc2565b82800160010185558215610fc2579182015b82811115610fc2578251825591602001919060010190610fa7565b50610fce929150610fd2565b5090565b5b80821115610fce5760008155600101610fd3565b80356001600160a01b0381168114610ffe57600080fd5b919050565b600060208284031215611014578081fd5b61101d82610fe7565b9392505050565b60008060008060608587031215611039578283fd5b61104285610fe7565b935060208501359250604085013567ffffffffffffffff80821115611065578384fd5b818701915087601f830112611078578384fd5b813581811115611086578485fd5b886020828501011115611097578485fd5b95989497505060200194505050565b6000602082840312156110b7578081fd5b5035919050565b600080604083850312156110d0578182fd5b823591506110e060208401610fe7565b90509250929050565b60008151808452815b8181101561110e576020818501810151868301820152016110f2565b8181111561111f5782602083870101525b50601f01601f19169290920160200192915050565b600061010082518452602083015160018060a01b0380821660208701526040850151604087015260608501519150826060870152611174838701836110e9565b9250806080860151166080870152505060a083015160a085015260c0830151151560c085015260e0830151151560e08501528091505092915050565b600080835482600182811c9150808316806111cc57607f831692505b60208084108214156111ec57634e487b7160e01b87526022600452602487fd5b81801561120057600181146112115761123d565b60ff1986168952848901965061123d565b60008a815260209020885b868110156112355781548b82015290850190830161121c565b505084890196505b509498975050505050505050565b6001600160a01b0385168152602081018490526060604082018190528101829052818360808301376000818301608090810191909152601f909201601f191601019392505050565b6020808252825182820181905260009190848201906040850190845b818110156112d45783516001600160a01b0316835292840192918401916001016112af565b50909695505050505050565b6000602080830181845280855180835260408601915060408160051b8701019250838701855b8281101561133457603f19888603018452611322858351611134565b94509285019290850190600101611306565b5092979650505050505050565b6020808252601690820152754d756c74695369673a20796120656a6563757461646160501b604082015260600190565b60208082526018908201527f4d756c74695369673a206e6f2065726573207369676e65720000000000000000604082015260600190565b6020808252601d908201527f4d756c74695369673a2070726f707565737461206e6f20657869737465000000604082015260600190565b6020808252601390820152724d756c74695369673a2063616e63656c61646160681b604082015260600190565b60208152600061101d6020830184611134565b8881526001600160a01b03888116602083015260408201889052610100606083018190526000916114528483018a6110e9565b97166080840152505060a081019390935290151560c0830152151560e090910152949350505050565b600181811c9082168061148f57607f821691505b60208210811415610d1957634e487b7160e01b600052602260045260246000fd5b60006000198214156114d057634e487b7160e01b81526011600452602481fd5b506001019056fea26469706673582212209e9a6539ec4c4bf41a55e48130c87cfed11d998426776b4e64178fc459a86fdf64736f6c63430008040033",
  "linkReferences": {},
  "deployedLinkReferences": {}
}